(base) 6A:5B:0E:48:54:87:~ hoomanafsharnia$ sudo tcpdump -XX -i en0
tcpdump: verbose output suppressed, use -v[v]... for full protocol decode
listening on en0, link-type EN10MB (Ethernet), snapshot length 262144 bytes
00:22:57.443251 IP 6a:5b:0e:48:54:87.49289 > bedroom.afs3-fileserver: Flags [P.], seq 3842471601:3842471688, ack 2561037151, win 2048, options [nop,nop,TS val 3481110034 ecr 3570534408], length 87
	0x0000:  94ea 3298 5aef 6a5b 0e48 5487 0800 4500  ..2.Z.j[.HT...E.
	0x0010:  008b 0000 4000 4006 b480 c0a8 028e c0a8  ....@.@.........
	0x0020:  020e c089 1b58 e507 76b1 98a6 535f 8018  .....X..v...S_..
	0x0030:  0800 275a 0000 0101 080a cf7d 8612 d4d2  ..'Z.......}....
	0x0040:  0808 4500 8806 62f2 7a20 0647 1950 e9ed  ..E...b.z..G.P..
	0x0050:  88e5 7541 02f7 b435 8240 2d2c 0f86 7812  ..uA...5.@-,..x.
	0x0060:  a2df dfc6 08a2 85ac 4ac9 0890 5ee7 230c  ........J...^.#.
	0x0070:  9341 a808 e54e a663 9c7f 6fc6 ae02 cd80  .A...N.c..o.....
	0x0080:  dea5 07ae 8a05 1963 7d39 076f 9903 7193  .......c}9.o..q.
	0x0090:  7b0a 4e12 d7d9 e817 f4                   {.N......
00:22:57.473567 IP bedroom.afs3-fileserver > 6a:5b:0e:48:54:87.49289: Flags [.], ack 87, win 4093, options [nop,nop,TS val 3570536248 ecr 3481110034], length 0
	0x0000:  6a5b 0e48 5487 94ea 3298 5aef 0800 4500  j[.HT...2.Z...E.
	0x0010:  0034 0000 4000 4006 b4d7 c0a8 020e c0a8  .4..@.@.........
	0x0020:  028e 1b58 c089 98a6 535f e507 7708 8010  ...X....S_..w...
	0x0030:  0ffd 8340 0000 0101 080a d4d2 0f38 cf7d  ...@.........8.}
	0x0040:  8612                                     ..
00:22:57.473570 IP bedroom.afs3-fileserver > 6a:5b:0e:48:54:87.49289: Flags [P.], seq 1:310, ack 87, win 4096, options [nop,nop,TS val 3570536248 ecr 3481110034], length 309
	0x0000:  6a5b 0e48 5487 94ea 3298 5aef 0800 4500  j[.HT...2.Z...E.
	0x0010:  0169 0000 4000 4006 b3a2 c0a8 020e c0a8  .i..@.@.........
	0x0020:  028e 1b58 c089 98a6 535f e507 7708 8018  ...X....S_..w...
	0x0030:  1000 ebab 0000 0101 080a d4d2 0f38 cf7d  .............8.}
	0x0040:  8612 2301 5c11 443e 2ccf 58f1 af76 b576  ..#.\.D>,.X..v.v
	0x0050:  b00d da3a 7981 66a7 1b24 7cf8 4c85 ba00  ...:y.f..$|.L...
	0x0060:  531c ed5c c2c9 2100 fbd6 efae 63d6 321a  S..\..!.....c.2.
	0x0070:  3582 0f31 c1e9 f69a 105e 7bbe 618e 35b5  5..1.....^{.a.5.
	0x0080:  a771 c9ac 0826 248b c483 d171 c632 98f8  .q...&$....q.2..
	0x0090:  a225 ec46 cfc6 48dd 52e2 8769 0c90 054c  .%.F..H.R..i...L
	0x00a0:  2abf b2b6 f7b4 39c3 51a2 de82 2bfa 8b4c  *.....9.Q...+..L
	0x00b0:  1a7f 1ec2 d6ae 660f 31bb 975f aea8 d3fb  ......f.1.._....
	0x00c0:  1f66 3c75 b34f 058c 076f db10 3c83 8afc  .f<u.O...o..<...
	0x00d0:  e057 0330 efe2 8d01 0e0a b804 a29e 8d07  .W.0............
	0x00e0:  236d c77f 7a28 2e65 0857 9a29 6547 d31a  #m..z(.e.W.)eG..
	0x00f0:  7acb 730b b93f 2e5f 41a1 f9b2 1875 353a  z.s..?._A....u5:
	0x0100:  c530 864a d0e2 3848 81d1 b598 367e f80f  .0.J..8H....6~..
	0x0110:  1eae dd31 7f7c ae2c 780f 622e a0f8 de7e  ...1.|.,x.b....~
	0x0120:  0e78 f813 0707 9693 3dab 374e 4a78 c2cb  .x......=.7NJx..
	0x0130:  8f6d 088c 58bc 1112 24fe 645c 09a0 3333  .m..X...$.d\..33
	0x0140:  992b a5d6 8ed1 73c3 763b 1dfb 3f51 9308  .+....s.v;..?Q..
	0x0150:  c085 427a 28da ded7 6bf3 1e59 832c 96ad  ..Bz(...k..Y.,..
	0x0160:  cfed e486 b7c5 b390 de64 f5fd 6d58 5954  .........d..mXYT
	0x0170:  2130 3b2a 5592 69                        !0;*U.i
00:22:57.473726 IP 6a:5b:0e:48:54:87.49289 > bedroom.afs3-fileserver: Flags [.], ack 310, win 2043, options [nop,nop,TS val 3481110064 ecr 3570536248], length 0
	0x0000:  94ea 3298 5aef 6a5b 0e48 5487 0800 4500  ..2.Z.j[.HT...E.
	0x0010:  0034 0000 4000 4006 b4d7 c0a8 028e c0a8  .4..@.@.........
	0x0020:  020e c089 1b58 e507 7708 98a6 5494 8010  .....X..w...T...
	0x0030:  07fb 89ef 0000 0101 080a cf7d 8630 d4d2  ...........}.0..
	0x0040:  0f38                                     .8
00:22:57.505278 IP 6a:5b:0e:48:54:87.63814 > mynetwork.home.domain: 6570+ PTR? 142.2.168.192.in-addr.arpa. (44)
	0x0000:  0cac 8acf 3e76 6a5b 0e48 5487 0800 4500  ....>vj[.HT...E.
	0x0010:  0048 3286 0000 4011 c23f c0a8 028e c0a8  .H2...@..?......
	0x0020:  0201 f946 0035 0034 a3d1 19aa 0100 0001  ...F.5.4........
	0x0030:  0000 0000 0000 0331 3432 0132 0331 3638  .......142.2.168
	0x0040:  0331 3932 0769 6e2d 6164 6472 0461 7270  .192.in-addr.arp
	0x0050:  6100 000c 0001                           a.....
00:22:57.509016 IP mynetwork.home.domain > 6a:5b:0e:48:54:87.63814: 6570* 1/0/0 PTR 6A:5B:0E:48:54:87. (75)
	0x0000:  6a5b 0e48 5487 0cac 8acf 3e76 0800 4500  j[.HT.....>v..E.
	0x0010:  0067 71a4 4000 4011 4302 c0a8 0201 c0a8  .gq.@.@.C.......
	0x0020:  028e 0035 f946 0053 7ce9 19aa 8580 0001  ...5.F.S|.......
	0x0030:  0001 0000 0000 0331 3432 0132 0331 3638  .......142.2.168
	0x0040:  0331 3932 0769 6e2d 6164 6472 0461 7270  .192.in-addr.arp
	0x0050:  6100 000c 0001 c00c 000c 0001 0000 0000  a...............
	0x0060:  0013 1136 413a 3542 3a30 453a 3438 3a35  ...6A:5B:0E:48:5
	0x0070:  343a 3837 00                             4:87.
00:22:57.510317 IP 6a:5b:0e:48:54:87.52483 > mynetwork.home.domain: 32044+ PTR? 14.2.168.192.in-addr.arpa. (43)
	0x0000:  0cac 8acf 3e76 6a5b 0e48 5487 0800 4500  ....>vj[.HT...E.
	0x0010:  0047 08d4 0000 4011 ebf2 c0a8 028e c0a8  .G....@.........
	0x0020:  0201 cd03 0035 0033 ad86 7d2c 0100 0001  .....5.3..},....
	0x0030:  0000 0000 0000 0231 3401 3203 3136 3803  .......14.2.168.
	0x0040:  3139 3207 696e 2d61 6464 7204 6172 7061  192.in-addr.arpa
	0x0050:  0000 0c00 01                             .....
00:22:57.514272 IP mynetwork.home.domain > 6a:5b:0e:48:54:87.52483: 32044* 1/0/0 PTR Bedroom. (64)
	0x0000:  6a5b 0e48 5487 0cac 8acf 3e76 0800 4500  j[.HT.....>v..E.
	0x0010:  005c 71a9 4000 4011 4308 c0a8 0201 c0a8  .\q.@.@.C.......
	0x0020:  028e 0035 cd03 0048 82cc 7d2c 8580 0001  ...5...H..},....
	0x0030:  0001 0000 0000 0231 3401 3203 3136 3803  .......14.2.168.
	0x0040:  3139 3207 696e 2d61 6464 7204 6172 7061  192.in-addr.arpa
	0x0050:  0000 0c00 01c0 0c00 0c00 0100 0000 0000  ................
	0x0060:  0907 4265 6472 6f6f 6d00                 ..Bedroom.
00:22:57.619754 IP 6a:5b:0e:48:54:87.57719 > mynetwork.home.domain: 6910+ PTR? 1.2.168.192.in-addr.arpa. (42)
	0x0000:  0cac 8acf 3e76 6a5b 0e48 5487 0800 4500  ....>vj[.HT...E.
	0x0010:  0046 bc90 0000 4011 3837 c0a8 028e c0a8  .F....@.87......
	0x0020:  0201 e177 0035 0032 f082 1afe 0100 0001  ...w.5.2........
	0x0030:  0000 0000 0000 0131 0132 0331 3638 0331  .......1.2.168.1
	0x0040:  3932 0769 6e2d 6164 6472 0461 7270 6100  92.in-addr.arpa.
	0x0050:  000c 0001                                ....
00:22:57.623662 IP mynetwork.home.domain > 6a:5b:0e:48:54:87.57719: 6910* 1/0/0 PTR mynetwork.home. (70)
	0x0000:  6a5b 0e48 5487 0cac 8acf 3e76 0800 4500  j[.HT.....>v..E.
	0x0010:  0062 71f6 4000 4011 42b5 c0a8 0201 c0a8  .bq.@.@.B.......
	0x0020:  028e 0035 e177 004e 009f 1afe 8580 0001  ...5.w.N........
	0x0030:  0001 0000 0000 0131 0132 0331 3638 0331  .......1.2.168.1
	0x0040:  3932 0769 6e2d 6164 6472 0461 7270 6100  92.in-addr.arpa.
	0x0050:  000c 0001 c00c 000c 0001 0000 0000 0010  ................
	0x0060:  096d 796e 6574 776f 726b 0468 6f6d 6500  .mynetwork.home.
00:22:57.673825 ARP, Request who-has tl-wa901nd tell tl-wa850re, length 46
	0x0000:  ffff ffff ffff ae15 a20c efa7 0806 0001  ................
	0x0010:  0800 0604 0001 ae15 a20c efa7 c0a8 028f  ................
	0x0020:  0000 0000 0000 c0a8 020b 0000 0000 0000  ................
	0x0030:  0000 0000 0000 0000 0000 0000            ............
00:22:57.727716 IP 6a:5b:0e:48:54:87.59930 > mynetwork.home.domain: 12807+ PTR? 11.2.168.192.in-addr.arpa. (43)
	0x0000:  0cac 8acf 3e76 6a5b 0e48 5487 0800 4500  ....>vj[.HT...E.
	0x0010:  0047 dfaf 0000 4011 1517 c0a8 028e c0a8  .G....@.........
	0x0020:  0201 ea1a 0035 0033 de94 3207 0100 0001  .....5.3..2.....
	0x0030:  0000 0000 0000 0231 3101 3203 3136 3803  .......11.2.168.
	0x0040:  3139 3207 696e 2d61 6464 7204 6172 7061  192.in-addr.arpa
	0x0050:  0000 0c00 01                             .....
00:22:57.731651 IP mynetwork.home.domain > 6a:5b:0e:48:54:87.59930: 12807* 1/0/0 PTR TL-WA901ND. (67)
	0x0000:  6a5b 0e48 5487 0cac 8acf 3e76 0800 4500  j[.HT.....>v..E.
	0x0010:  005f 7207 4000 4011 42a7 c0a8 0201 c0a8  ._r.@.@.B.......
	0x0020:  028e 0035 ea1a 004b f2c6 3207 8580 0001  ...5...K..2.....
	0x0030:  0001 0000 0000 0231 3101 3203 3136 3803  .......11.2.168.
	0x0040:  3139 3207 696e 2d61 6464 7204 6172 7061  192.in-addr.arpa
	0x0050:  0000 0c00 01c0 0c00 0c00 0100 0000 0000  ................
	0x0060:  0c0a 544c 2d57 4139 3031 4e44 00         ..TL-WA901ND.
00:22:57.733197 IP 6a:5b:0e:48:54:87.62020 > mynetwork.home.domain: 21945+ PTR? 143.2.168.192.in-addr.arpa. (44)
	0x0000:  0cac 8acf 3e76 6a5b 0e48 5487 0800 4500  ....>vj[.HT...E.
	0x0010:  0048 e269 0000 4011 125c c0a8 028e c0a8  .H.i..@..\......
	0x0020:  0201 f244 0035 0034 6ec3 55b9 0100 0001  ...D.5.4n.U.....
	0x0030:  0000 0000 0000 0331 3433 0132 0331 3638  .......143.2.168
	0x0040:  0331 3932 0769 6e2d 6164 6472 0461 7270  .192.in-addr.arp
	0x0050:  6100 000c 0001                           a.....
00:22:57.740279 IP mynetwork.home.domain > 6a:5b:0e:48:54:87.62020: 21945* 1/0/0 PTR TL-WA850RE. (68)
	0x0000:  6a5b 0e48 5487 0cac 8acf 3e76 0800 4500  j[.HT.....>v..E.
	0x0010:  0060 7209 4000 4011 42a4 c0a8 0201 c0a8  .`r.@.@.B.......
	0x0020:  028e 0035 f244 004c cea1 55b9 8580 0001  ...5.D.L..U.....
	0x0030:  0001 0000 0000 0331 3433 0132 0331 3638  .......143.2.168
	0x0040:  0331 3932 0769 6e2d 6164 6472 0461 7270  .192.in-addr.arp
	0x0050:  6100 000c 0001 c00c 000c 0001 0000 0000  a...............
	0x0060:  000c 0a54 4c2d 5741 3835 3052 4500       ...TL-WA850RE.
00:22:57.973048 IP 6a:5b:0e:48:54:87.58521 > a172-224-186-196.source.akaquill.net.https: UDP, length 48
	0x0000:  0cac 8acf 3e76 6a5b 0e48 5487 0800 4500  ....>vj[.HT...E.
	0x0010:  004c 0000 4000 4011 0fc6 c0a8 028e ace0  .L..@.@.........
	0x0020:  bac4 e499 01bb 0038 c1b2 74b8 ec24 0136  .......8..t..$.6
	0x0030:  1bc4 d448 5a7a adfd 7b31 8ae4 096d 8d9c  ...HZz..{1...m..
	0x0040:  cc82 7a11 57e1 1878 8374 bc79 a40f 398e  ..z.W..x.t.y..9.
	0x0050:  28b1 fac8 4be2 df1b 11f1                 (...K.....
00:22:57.988861 IP a172-224-186-196.source.akaquill.net.https > 6a:5b:0e:48:54:87.58521: UDP, length 39
	0x0000:  6a5b 0e48 5487 0cac 8acf 3e76 0800 4500  j[.HT.....>v..E.
	0x0010:  0043 2e0a 4000 2f11 f2c4 ace0 bac4 c0a8  .C..@./.........
	0x0020:  028e 01bb e499 002f d61a 4881 6bf8 846a  ......./..H.k..j
	0x0030:  6740 9dfd 85ed 868d 88ef d206 1490 6a2d  g@............j-
	0x0040:  bc3e 76f3 95d3 6865 0f25 29cf 733f 5e54  .>v...he.%).s?^T
	0x0050:  b8                                       .
00:22:58.015298 IP 6a:5b:0e:48:54:87.58521 > a172-224-186-196.source.akaquill.net.https: UDP, length 50
	0x0000:  0cac 8acf 3e76 6a5b 0e48 5487 0800 4500  ....>vj[.HT...E.
	0x0010:  004e 0000 4000 4011 0fc4 c0a8 028e ace0  .N..@.@.........
	0x0020:  bac4 e499 01bb 003a 46ae 78b8 ec24 0136  .......:F.x..$.6
	0x0030:  1bc4 d448 5a7a adfd 7b31 8ae4 096d 8d12  ...HZz..{1...m..
	0x0040:  d769 cf95 d13c 70cc cc8c 66a0 9edb 07ec  .i...<p...f.....
	0x0050:  1c8c dc04 5fb3 15aa d7b1 a3cf            ...._.......
00:22:58.631875 IP 6a:5b:0e:48:54:87.58521 > a172-224-186-196.source.akaquill.net.https: UDP, length 41
	0x0000:  0cac 8acf 3e76 6a5b 0e48 5487 0800 4500  ....>vj[.HT...E.
	0x0010:  0045 0000 4000 4011 0fcd c0a8 028e ace0  .E..@.@.........
	0x0020:  bac4 e499 01bb 0031 e2c4 7503 ae64 78de  .......1..u..dx.
	0x0030:  6638 099a 92f0 06c7 0b9b be24 e3cf 68cd  f8.........$..h.
	0x0040:  4501 e517 8a00 14d4 1e5e 00d4 74cd 71d8  E........^..t.q.
	0x0050:  d8a2 a8                                  ...
00:22:58.643832 IP a172-224-186-196.source.akaquill.net.https > 6a:5b:0e:48:54:87.58521: UDP, length 33
	0x0000:  6a5b 0e48 5487 0cac 8acf 3e76 0800 4500  j[.HT.....>v..E.
	0x0010:  003d 0000 4000 3511 1ad5 ace0 bac4 c0a8  .=..@.5.........
	0x0020:  028e 01bb e499 0029 66ed 4e26 f072 5bc7  .......)f.N&.r[.
	0x0030:  9ca3 5e5c f7f4 1a31 2633 dca4 c91a bc70  ..^\...1&3.....p
	0x0040:  55ca 2748 574b a0a0 0895 da              U.'HWK.....
00:22:58.696963 ARP, Request who-has da:2b:98:a1:c1:ba tell tl-wa850re, length 46
	0x0000:  ffff ffff ffff ae15 a20c efa7 0806 0001  ................
	0x0010:  0800 0604 0001 ae15 a20c efa7 c0a8 028f  ................
	0x0020:  0000 0000 0000 c0a8 0289 0000 0000 0000  ................
	0x0030:  0000 0000 0000 0000 0000 0000            ............
00:22:58.753756 IP 6a:5b:0e:48:54:87.62695 > mynetwork.home.domain: 28789+ PTR? 137.2.168.192.in-addr.arpa. (44)
	0x0000:  0cac 8acf 3e76 6a5b 0e48 5487 0800 4500  ....>vj[.HT...E.
	0x0010:  0048 157c 0000 4011 df49 c0a8 028e c0a8  .H.|..@..I......
	0x0020:  0201 f4e7 0035 0034 5260 7075 0100 0001  .....5.4R`pu....
	0x0030:  0000 0000 0000 0331 3337 0132 0331 3638  .......137.2.168
	0x0040:  0331 3932 0769 6e2d 6164 6472 0461 7270  .192.in-addr.arp
	0x0050:  6100 000c 0001                           a.....
00:22:58.757500 IP mynetwork.home.domain > 6a:5b:0e:48:54:87.62695: 28789* 1/0/0 PTR DA:2B:98:A1:C1:BA. (75)
	0x0000:  6a5b 0e48 5487 0cac 8acf 3e76 0800 4500  j[.HT.....>v..E.
	0x0010:  0067 728b 4000 4011 421b c0a8 0201 c0a8  .gr.@.@.B.......
	0x0020:  028e 0035 f4e7 0053 2750 7075 8580 0001  ...5...S'Ppu....
	0x0030:  0001 0000 0000 0331 3337 0132 0331 3638  .......137.2.168
	0x0040:  0331 3932 0769 6e2d 6164 6472 0461 7270  .192.in-addr.arp
	0x0050:  6100 000c 0001 c00c 000c 0001 0000 0000  a...............
	0x0060:  0013 1144 413a 3242 3a39 383a 4131 3a43  ...DA:2B:98:A1:C
	0x0070:  313a 4241 00                             1:BA.
00:22:59.454952 IP 6a:5b:0e:48:54:87.49289 > bedroom.afs3-fileserver: Flags [P.], seq 87:174, ack 310, win 2048, options [nop,nop,TS val 3481112046 ecr 3570536248], length 87
	0x0000:  94ea 3298 5aef 6a5b 0e48 5487 0800 4500  ..2.Z.j[.HT...E.
	0x0010:  008b 0000 4000 4006 b480 c0a8 028e c0a8  ....@.@.........
	0x0020:  020e c089 1b58 e507 7708 98a6 5494 8018  .....X..w...T...
	0x0030:  0800 e27a 0000 0101 080a cf7d 8dee d4d2  ...z.......}....
	0x0040:  0f38 4500 45c6 f0d9 d54c 6554 beab 8c41  .8E.E....LeT...A
	0x0050:  7829 8a60 7d41 7617 61af 35e3 6bd7 4a70  x).`}Av.a.5.k.Jp
	0x0060:  79bb 1e01 fc98 0a3b 0ba2 09b2 7ef4 3425  y......;....~.4%
	0x0070:  6ebe 51fa 5d9b bb69 cc74 9584 3069 badc  n.Q.]..i.t..0i..
	0x0080:  b1dc d4c6 dbc6 3979 ae7b a69c 585c d50b  ......9y.{..X\..
	0x0090:  7459 d731 8638 5042 8c                   tY.1.8PB.
00:22:59.515877 IP wlan0.56246 > broadcasthost.6667: UDP, length 172
	0x0000:  ffff ffff ffff a092 081e b758 0800 4500  ...........X..E.
	0x0010:  00c8 f058 0000 ff11 0817 c0a8 020d ffff  ...X............
	0x0020:  ffff dbb6 1a0b 00b4 5aa3 0000 55aa 0000  ........Z...U...
	0x0030:  0000 0000 0013 0000 009c 0000 0000 97b9  ................
	0x0040:  3fee 4b69 c95f eeb3 d33b da35 2952 a0b1  ?.Ki._...;.5)R..
	0x0050:  51be 526e b3c8 de0a 86e9 b7a7 8679 563c  Q.Rn.........yV<
	0x0060:  5655 d7bb ce39 f2d9 95cf 63ee f09c 678b  VU...9....c...g.
	0x0070:  d37f 56c8 bd25 3c96 72f3 6417 d529 c2fb  ..V..%<.r.d..)..
	0x0080:  8459 b115 5fc7 5d4b f669 9f92 cba4 c0ba  .Y.._.]K.i......
	0x0090:  5201 4804 5e76 05fa 0498 dfea 5aab 3cbf  R.H.^v......Z.<.
	0x00a0:  a48f e6ff 377e 5a9d 3e20 f64f 364a 79e5  ....7~Z.>..O6Jy.
	0x00b0:  1274 e589 3266 426c 5300 bced 4ad9 6eda  .t..2fBlS...J.n.
	0x00c0:  8eea 40e9 3b1e 3fc1 4a25 70e1 8279 214d  ..@.;.?.J%p..y!M
	0x00d0:  011c 0000 aa55                           .....U
00:22:59.563659 IP bedroom.afs3-fileserver > 6a:5b:0e:48:54:87.49289: Flags [.], ack 174, win 4093, options [nop,nop,TS val 3570538298 ecr 3481112046], length 0
	0x0000:  6a5b 0e48 5487 94ea 3298 5aef 0800 4500  j[.HT...2.Z...E.
	0x0010:  0034 0000 4000 4006 b4d7 c0a8 020e c0a8  .4..@.@.........
	0x0020:  028e 1b58 c089 98a6 5494 e507 775f 8010  ...X....T...w_..
	0x0030:  0ffd 71d6 0000 0101 080a d4d2 173a cf7d  ..q..........:.}
	0x0040:  8dee                                     ..
00:22:59.563662 IP bedroom.afs3-fileserver > 6a:5b:0e:48:54:87.49289: Flags [P.], seq 310:619, ack 174, win 4096, options [nop,nop,TS val 3570538298 ecr 3481112046], length 309
	0x0000:  6a5b 0e48 5487 94ea 3298 5aef 0800 4500  j[.HT...2.Z...E.
	0x0010:  0169 0000 4000 4006 b3a2 c0a8 020e c0a8  .i..@.@.........
	0x0020:  028e 1b58 c089 98a6 5494 e507 775f 8018  ...X....T...w_..
	0x0030:  1000 b797 0000 0101 080a d4d2 173a cf7d  .............:.}
	0x0040:  8dee 2301 c739 d87f 1104 ecf4 b1ab 9d4b  ..#..9.........K
	0x0050:  9748 16a8 fc62 7b09 52b1 5414 8d46 e247  .H...b{.R.T..F.G
	0x0060:  0795 99df afdf 8bf5 18da ce23 7dd9 5f6f  ...........#}._o
	0x0070:  ff93 d0ca 83b7 711a 417a 51b3 44fa fcf1  ......q.AzQ.D...
	0x0080:  2c1c 4845 3444 fc18 9d82 47ad a0bd b778  ,.HE4D....G....x
	0x0090:  fca8 5d41 0f14 a53f 0620 6685 7581 41bc  ..]A...?..f.u.A.
	0x00a0:  0c8e d4ff 9477 3b9b f779 d4fc f68d 0293  .....w;..y......
	0x00b0:  a939 8053 1576 fe33 0e6f 3763 ae63 e695  .9.S.v.3.o7c.c..
	0x00c0:  07ca dac5 5d9b 02a4 a836 3e8a d41e cfc1  ....]....6>.....
	0x00d0:  aff3 8c06 8af5 afe9 ce29 1f2a ad7f e7fb  .........).*....
	0x00e0:  d1c4 a9d7 d879 35d8 8a89 ee69 5cab 1de5  .....y5....i\...
	0x00f0:  28db 5705 0303 8e34 dcbf a408 8f89 7b24  (.W....4......{$
	0x0100:  ed27 41f9 1deb 6906 6a4a ffae 063d e16d  .'A...i.jJ...=.m
	0x0110:  258d afda 2af3 25c1 0204 c932 198d ea2c  %...*.%....2...,
	0x0120:  f355 eb28 1dd1 f405 1556 afd3 3c00 1a82  .U.(.....V..<...
	0x0130:  ec8b 7a9c 77a2 a05e 0a67 edcf 32c7 37c0  ..z.w..^.g..2.7.
	0x0140:  cdb4 fb49 f0fc 77b7 c75c 053c 7b06 8abb  ...I..w..\.<{...
	0x0150:  4817 f72e b89b 7c32 07ed dd8f a11b 304f  H.....|2......0O
	0x0160:  2e54 a566 1b2e 4fda db3f 7c36 c6e8 d7fe  .T.f..O..?|6....
	0x0170:  2abc e27b 0a19 47                        *..{..G
00:22:59.563906 IP 6a:5b:0e:48:54:87.49289 > bedroom.afs3-fileserver: Flags [.], ack 619, win 2043, options [nop,nop,TS val 3481112155 ecr 3570538298], length 0
	0x0000:  94ea 3298 5aef 6a5b 0e48 5487 0800 4500  ..2.Z.j[.HT...E.
	0x0010:  0034 0000 4000 4006 b4d7 c0a8 028e c0a8  .4..@.@.........
	0x0020:  020e c089 1b58 e507 775f 98a6 55c9 8010  .....X..w_..U...
	0x0030:  07fb 7836 0000 0101 080a cf7d 8e5b d4d2  ..x6.......}.[..
	0x0040:  173a                                     .:
00:22:59.568589 IP 6a:5b:0e:48:54:87.50630 > mynetwork.home.domain: 11748+ PTR? 13.2.168.192.in-addr.arpa. (43)
	0x0000:  0cac 8acf 3e76 6a5b 0e48 5487 0800 4500  ....>vj[.HT...E.
	0x0010:  0047 2586 0000 4011 cf40 c0a8 028e c0a8  .G%...@..@......
	0x0020:  0201 c5c6 0035 0033 050c 2de4 0100 0001  .....5.3..-.....
	0x0030:  0000 0000 0000 0231 3301 3203 3136 3803  .......13.2.168.
	0x0040:  3139 3207 696e 2d61 6464 7204 6172 7061  192.in-addr.arpa
	0x0050:  0000 0c00 01                             .....
00:22:59.579018 IP mynetwork.home.domain > 6a:5b:0e:48:54:87.50630: 11748* 1/0/0 PTR wlan0. (62)
	0x0000:  6a5b 0e48 5487 0cac 8acf 3e76 0800 4500  j[.HT.....>v..E.
	0x0010:  005a 7396 4000 4011 411d c0a8 0201 c0a8  .Zs.@.@.A.......
	0x0020:  028e 0035 c5c6 0046 56c4 2de4 8580 0001  ...5...FV.-.....
	0x0030:  0001 0000 0000 0231 3301 3203 3136 3803  .......13.2.168.
	0x0040:  3139 3207 696e 2d61 6464 7204 6172 7061  192.in-addr.arpa
	0x0050:  0000 0c00 01c0 0c00 0c00 0100 0000 0000  ................
	0x0060:  0705 776c 616e 3000                      ..wlan0.
00:22:59.580488 IP 6a:5b:0e:48:54:87.56409 > mynetwork.home.domain: 21556+ PTR? 255.255.255.255.in-addr.arpa. (46)
	0x0000:  0cac 8acf 3e76 6a5b 0e48 5487 0800 4500  ....>vj[.HT...E.
	0x0010:  004a 2e02 0000 4011 c6c1 c0a8 028e c0a8  .J....@.........
	0x0020:  0201 dc59 0035 0036 52f5 5434 0100 0001  ...Y.5.6R.T4....
	0x0030:  0000 0000 0000 0332 3535 0332 3535 0332  .......255.255.2
	0x0040:  3535 0332 3535 0769 6e2d 6164 6472 0461  55.255.in-addr.a
	0x0050:  7270 6100 000c 0001                      rpa.....
00:22:59.586740 IP mynetwork.home.domain > 6a:5b:0e:48:54:87.56409: 21556 NXDomain* 0/0/0 (46)
	0x0000:  6a5b 0e48 5487 0cac 8acf 3e76 0800 4500  j[.HT.....>v..E.
	0x0010:  004a 7397 4000 4011 412c c0a8 0201 c0a8  .Js.@.@.A,......
	0x0020:  028e 0035 dc59 0036 ce71 5434 8583 0001  ...5.Y.6.qT4....
	0x0030:  0000 0000 0000 0332 3535 0332 3535 0332  .......255.255.2
	0x0040:  3535 0332 3535 0769 6e2d 6164 6472 0461  55.255.in-addr.a
	0x0050:  7270 6100 000c 0001                      rpa.....
00:22:59.618122 ARP, Request who-has 0b251e9936aaaec6d9d7a744eaba2de tell tl-wa850re, length 46
	0x0000:  ffff ffff ffff ae15 a20c efa7 0806 0001  ................
	0x0010:  0800 0604 0001 ae15 a20c efa7 c0a8 028f  ................
	0x0020:  0000 0000 0000 c0a8 020a 0000 0000 0000  ................
	0x0030:  0000 0000 0000 0000 0000 0000            ............
00:22:59.690847 IP 6a:5b:0e:48:54:87.52407 > mynetwork.home.domain: 4312+ PTR? 10.2.168.192.in-addr.arpa. (43)
	0x0000:  0cac 8acf 3e76 6a5b 0e48 5487 0800 4500  ....>vj[.HT...E.
	0x0010:  0047 679a 0000 4011 8d2c c0a8 028e c0a8  .Gg...@..,......
	0x0020:  0201 ccb7 0035 0033 1e27 10d8 0100 0001  .....5.3.'......
	0x0030:  0000 0000 0000 0231 3001 3203 3136 3803  .......10.2.168.
	0x0040:  3139 3207 696e 2d61 6464 7204 6172 7061  192.in-addr.arpa
	0x0050:  0000 0c00 01                             .....
00:22:59.695237 IP mynetwork.home.domain > 6a:5b:0e:48:54:87.52407: 4312* 1/0/0 PTR 0b251e9936aaaec6d9d7a744eaba2de. (88)
	0x0000:  6a5b 0e48 5487 0cac 8acf 3e76 0800 4500  j[.HT.....>v..E.
	0x0010:  0074 73dc 4000 4011 40bd c0a8 0201 c0a8  .ts.@.@.@.......
	0x0020:  028e 0035 ccb7 0060 7aff 10d8 8580 0001  ...5...`z.......
	0x0030:  0001 0000 0000 0231 3001 3203 3136 3803  .......10.2.168.
	0x0040:  3139 3207 696e 2d61 6464 7204 6172 7061  192.in-addr.arpa
	0x0050:  0000 0c00 01c0 0c00 0c00 0100 0000 0000  ................
	0x0060:  211f 3062 3235 3165 3939 3336 6161 6165  !.0b251e9936aaae
	0x0070:  6336 6439 6437 6137 3434 6561 6261 3264  c6d9d7a744eaba2d
	0x0080:  6500                                     e.
00:23:00.641345 ARP, Request who-has mynetwork.home tell tl-wa850re, length 46
	0x0000:  ffff ffff ffff ae15 a20c efa7 0806 0001  ................
	0x0010:  0800 0604 0001 ae15 a20c efa7 c0a8 028f  ................
	0x0020:  0000 0000 0000 c0a8 0201 0000 0000 0000  ................
	0x0030:  0000 0000 0000 0000 0000 0000            ............
00:23:00.645959 IP 6a:5b:0e:48:54:87.58521 > a172-224-186-196.source.akaquill.net.https: UDP, length 41
	0x0000:  0cac 8acf 3e76 6a5b 0e48 5487 0800 4500  ....>vj[.HT...E.
	0x0010:  0045 0000 4000 4011 0fcd c0a8 028e ace0  .E..@.@.........
	0x0020:  bac4 e499 01bb 0031 0903 6f03 ae64 78de  .......1..o..dx.
	0x0030:  6638 099a 92f0 06c7 0b9b be24 e3cf 6824  f8.........$..h$
	0x0040:  aadd 8204 182d 6dfd 2250 1f1a cac6 89fa  .....-m."P......
	0x0050:  8a9b 5c                                  ..\
00:23:00.650579 IP a172-224-186-196.source.akaquill.net.https > 6a:5b:0e:48:54:87.58521: UDP, length 33
	0x0000:  6a5b 0e48 5487 0cac 8acf 3e76 0800 4500  j[.HT.....>v..E.
	0x0010:  003d 0000 4000 3511 1ad5 ace0 bac4 c0a8  .=..@.5.........
	0x0020:  028e 01bb e499 0029 0d77 5c26 f072 5bc7  .......).w\&.r[.
	0x0030:  9ca3 5e85 c2ae ed86 7260 de68 158f 69f1  ..^.....r`.h..i.
	0x0040:  328d f55c 22d7 88c6 8663 63              2..\"....cc
00:23:01.475486 IP 6a:5b:0e:48:54:87.49289 > bedroom.afs3-fileserver: Flags [P.], seq 174:261, ack 619, win 2048, options [nop,nop,TS val 3481114066 ecr 3570538298], length 87
	0x0000:  94ea 3298 5aef 6a5b 0e48 5487 0800 4500  ..2.Z.j[.HT...E.
	0x0010:  008b 0000 4000 4006 b480 c0a8 028e c0a8  ....@.@.........
	0x0020:  020e c089 1b58 e507 775f 98a6 55c9 8018  .....X..w_..U...
	0x0030:  0800 2489 0000 0101 080a cf7d 95d2 d4d2  ..$........}....
	0x0040:  173a 4500 c76e 318d 00cb 1eff cfeb 6e3d  .:E..n1.......n=
	0x0050:  2683 cd7a 3308 4947 de5d 5cf2 0a75 9d3f  &..z3.IG.]\..u.?
	0x0060:  a84d 5514 aa8d 2cf8 c703 7172 f45f 0b0c  .MU...,...qr._..
	0x0070:  e4bc c7fe 6e3f ed86 3952 7398 0d37 bf18  ....n?..9Rs..7..
	0x0080:  4344 8cd1 f8d9 703b 8307 f638 1435 ccad  CD....p;...8.5..
	0x0090:  b32f 6b2c e0b2 f4ab 47                   ./k,....G
00:23:01.566584 IP 6a:5b:0e:48:54:87.58521 > a172-224-186-196.source.akaquill.net.https: UDP, length 30
	0x0000:  0cac 8acf 3e76 6a5b 0e48 5487 0800 4500  ....>vj[.HT...E.
	0x0010:  003a 0000 4000 4011 0fd8 c0a8 028e ace0  .:..@.@.........
	0x0020:  bac4 e499 01bb 0026 b3cf 7eb8 3e28 1158  .......&..~.>(.X
	0x0030:  84cd 5179 1598 9162 1aba 2dd0 f543 5543  ..Qy...b..-..CUC
	0x0040:  4f16 60c5 ae4d fdec                      O.`..M..
00:23:01.658672 IP 6a:5b:0e:48:54:87.58521 > a172-224-186-196.source.akaquill.net.https: UDP, length 30
	0x0000:  0cac 8acf 3e76 6a5b 0e48 5487 0800 4500  ....>vj[.HT...E.
	0x0010:  003a 0000 4000 4011 0fd8 c0a8 028e ace0  .:..@.@.........
	0x0020:  bac4 e499 01bb 0026 f24a 7bb8 3e28 1158  .......&.J{.>(.X
	0x0030:  84cd 5179 e0cb fae9 5bbe 7238 a7a3 0c1a  ..Qy....[.r8....
	0x0040:  ec6b 1eb6 cedf 233b                      .k....#;
00:23:01.702565 IP bedroom.afs3-fileserver > 6a:5b:0e:48:54:87.49289: Flags [.], ack 261, win 4093, options [nop,nop,TS val 3570540343 ecr 3481114066], length 0
	0x0000:  6a5b 0e48 5487 94ea 3298 5aef 0800 4500  j[.HT...2.Z...E.
	0x0010:  0034 0000 4000 4006 b4d7 c0a8 020e c0a8  .4..@.@.........
	0x0020:  028e 1b58 c089 98a6 55c9 e507 77b6 8010  ...X....U...w...
	0x0030:  0ffd 6069 0000 0101 080a d4d2 1f37 cf7d  ..`i.........7.}
	0x0040:  95d2                                     ..
00:23:01.702568 IP bedroom.afs3-fileserver > 6a:5b:0e:48:54:87.49289: Flags [P.], seq 619:928, ack 261, win 4096, options [nop,nop,TS val 3570540343 ecr 3481114066], length 309
	0x0000:  6a5b 0e48 5487 94ea 3298 5aef 0800 4500  j[.HT...2.Z...E.
	0x0010:  0169 0000 4000 4006 b3a2 c0a8 020e c0a8  .i..@.@.........
	0x0020:  028e 1b58 c089 98a6 55c9 e507 77b6 8018  ...X....U...w...
	0x0030:  1000 6e1f 0000 0101 080a d4d2 1f37 cf7d  ..n..........7.}
	0x0040:  95d2 2301 5f6c dc28 cf93 3ec2 fada c4c5  ..#._l.(..>.....
	0x0050:  6af0 4d77 3156 3181 1ae3 a791 171b 6a11  j.Mw1V1.......j.
	0x0060:  86b1 4de9 2a19 0ccb 50c1 d93e 6b70 366e  ..M.*...P..>kp6n
	0x0070:  1c62 146b 9976 2d07 c677 97ba 2eaf f7c7  .b.k.v-..w......
	0x0080:  d420 e4f3 e859 4925 b47f a193 f3e4 192f  .....YI%......./
	0x0090:  49ad f9ae 5cde c9c5 13d3 1367 0da2 3d37  I...\......g..=7
	0x00a0:  b2c0 9aa9 5a31 6442 9f51 91e1 3092 4ae9  ....Z1dB.Q..0.J.
	0x00b0:  ec65 12a0 5693 2122 bd08 705e 0d7c b459  .e..V.!"..p^.|.Y
	0x00c0:  2308 a3f7 9738 2480 2fe8 fadd 4cc3 90aa  #....8$./...L...
	0x00d0:  1dc1 08b0 fe0e a962 4255 67ff 4eb5 05d7  .......bBUg.N...
	0x00e0:  e467 e6dc 2c3e dff2 ef72 3ede 2331 bf74  .g..,>...r>.#1.t
	0x00f0:  d70f 9b61 7f70 8ae1 3728 693a e664 1d31  ...a.p..7(i:.d.1
	0x0100:  a77a 750c dc11 02cf 6538 a6a6 f685 bec4  .zu.....e8......
	0x0110:  cfe1 db8f 0e0b 36d5 ac8c edd2 67b7 809c  ......6.....g...
	0x0120:  111a 8948 d7e7 4a8e 5341 0d2b 6978 c24e  ...H..J.SA.+ix.N
	0x0130:  11a9 dfba 27e9 d95a 676f a456 d191 75b6  ....'..Zgo.V..u.
	0x0140:  2938 7cd0 6cb8 e98d 9cf9 75f2 bde8 d424  )8|.l.....u....$
	0x0150:  f5a4 9aa5 5338 e19d c89a 6955 33b3 0bf7  ....S8....iU3...
	0x0160:  85c9 906e ecf1 d468 776b 84f3 85c9 f86f  ...n...hwk.....o
	0x0170:  9873 a31b d003 75                        .s....u
00:23:01.702574 IP a172-224-186-196.source.akaquill.net.https > 6a:5b:0e:48:54:87.58521: UDP, length 33
	0x0000:  6a5b 0e48 5487 0cac 8acf 3e76 0800 4500  j[.HT.....>v..E.
	0x0010:  003d 0000 4000 3111 1ed5 ace0 bac4 c0a8  .=..@.1.........
	0x0020:  028e 01bb e499 0029 7635 50df f0e1 8870  .......)v5P....p
	0x0030:  31d7 0364 c129 b772 2581 6310 2858 4497  1..d.).r%.c.(XD.
	0x0040:  0463 b333 f48c 65c4 e2c3 16              .c.3..e....
00:23:01.702788 IP 6a:5b:0e:48:54:87.49289 > bedroom.afs3-fileserver: Flags [.], ack 928, win 2043, options [nop,nop,TS val 3481114294 ecr 3570540343], length 0
	0x0000:  94ea 3298 5aef 6a5b 0e48 5487 0800 4500  ..2.Z.j[.HT...E.
	0x0010:  0034 0000 4000 4006 b4d7 c0a8 028e c0a8  .4..@.@.........
	0x0020:  020e c089 1b58 e507 77b6 98a6 56fe 8010  .....X..w...V...
	0x0030:  07fb 6652 0000 0101 080a cf7d 96b6 d4d2  ..fR.......}....
	0x0040:  1f37                                     .7
00:23:01.861169 ARP, Request who-has 6a:5b:0e:48:54:87 (6a:5b:0e:48:54:87 (oui Unknown)) tell bedroom, length 28
	0x0000:  6a5b 0e48 5487 94ea 3298 5aef 0806 0001  j[.HT...2.Z.....
	0x0010:  0800 0604 0001 94ea 3298 5aef c0a8 020e  ........2.Z.....
	0x0020:  6a5b 0e48 5487 c0a8 028e                 j[.HT.....
00:23:01.861177 IP bedroom.afs3-fileserver > 6a:5b:0e:48:54:87.49289: Flags [P.], seq 619:928, ack 261, win 4096, options [nop,nop,TS val 3570540486 ecr 3481114066], length 309
	0x0000:  6a5b 0e48 5487 94ea 3298 5aef 0800 4500  j[.HT...2.Z...E.
	0x0010:  0169 0000 4000 4006 b3a2 c0a8 020e c0a8  .i..@.@.........
	0x0020:  028e 1b58 c089 98a6 55c9 e507 77b6 8018  ...X....U...w...
	0x0030:  1000 6d90 0000 0101 080a d4d2 1fc6 cf7d  ..m............}
	0x0040:  95d2 2301 5f6c dc28 cf93 3ec2 fada c4c5  ..#._l.(..>.....
	0x0050:  6af0 4d77 3156 3181 1ae3 a791 171b 6a11  j.Mw1V1.......j.
	0x0060:  86b1 4de9 2a19 0ccb 50c1 d93e 6b70 366e  ..M.*...P..>kp6n
	0x0070:  1c62 146b 9976 2d07 c677 97ba 2eaf f7c7  .b.k.v-..w......
	0x0080:  d420 e4f3 e859 4925 b47f a193 f3e4 192f  .....YI%......./
	0x0090:  49ad f9ae 5cde c9c5 13d3 1367 0da2 3d37  I...\......g..=7
	0x00a0:  b2c0 9aa9 5a31 6442 9f51 91e1 3092 4ae9  ....Z1dB.Q..0.J.
	0x00b0:  ec65 12a0 5693 2122 bd08 705e 0d7c b459  .e..V.!"..p^.|.Y
	0x00c0:  2308 a3f7 9738 2480 2fe8 fadd 4cc3 90aa  #....8$./...L...
	0x00d0:  1dc1 08b0 fe0e a962 4255 67ff 4eb5 05d7  .......bBUg.N...
	0x00e0:  e467 e6dc 2c3e dff2 ef72 3ede 2331 bf74  .g..,>...r>.#1.t
	0x00f0:  d70f 9b61 7f70 8ae1 3728 693a e664 1d31  ...a.p..7(i:.d.1
	0x0100:  a77a 750c dc11 02cf 6538 a6a6 f685 bec4  .zu.....e8......
	0x0110:  cfe1 db8f 0e0b 36d5 ac8c edd2 67b7 809c  ......6.....g...
	0x0120:  111a 8948 d7e7 4a8e 5341 0d2b 6978 c24e  ...H..J.SA.+ix.N
	0x0130:  11a9 dfba 27e9 d95a 676f a456 d191 75b6  ....'..Zgo.V..u.
	0x0140:  2938 7cd0 6cb8 e98d 9cf9 75f2 bde8 d424  )8|.l.....u....$
	0x0150:  f5a4 9aa5 5338 e19d c89a 6955 33b3 0bf7  ....S8....iU3...
	0x0160:  85c9 906e ecf1 d468 776b 84f3 85c9 f86f  ...n...hwk.....o
	0x0170:  9873 a31b d003 75                        .s....u
00:23:01.861328 ARP, Reply 6a:5b:0e:48:54:87 is-at 6a:5b:0e:48:54:87 (oui Unknown), length 28
	0x0000:  94ea 3298 5aef 6a5b 0e48 5487 0806 0001  ..2.Z.j[.HT.....
	0x0010:  0800 0604 0002 6a5b 0e48 5487 c0a8 028e  ......j[.HT.....
	0x0020:  94ea 3298 5aef c0a8 020e                 ..2.Z.....
00:23:01.861450 IP 6a:5b:0e:48:54:87.49289 > bedroom.afs3-fileserver: Flags [.], ack 928, win 2048, options [nop,nop,TS val 3481114452 ecr 3570540486,nop,nop,sack 1 {619:928}], length 0
	0x0000:  94ea 3298 5aef 6a5b 0e48 5487 0800 4500  ..2.Z.j[.HT...E.
	0x0010:  0040 0000 4000 4006 b4cb c0a8 028e c0a8  .@..@.@.........
	0x0020:  020e c089 1b58 e507 77b6 98a6 56fe b010  .....X..w...V...
	0x0030:  0800 50f4 0000 0101 080a cf7d 9754 d4d2  ..P........}.T..
	0x0040:  1fc6 0101 050a 98a6 55c9 98a6 56fe       ........U...V.
^C
49 packets captured
49 packets received by filter
0 packets dropped by kernel
